{
  "contracts/L1/VeraxFetcher.sol": {
    "VeraxFetcher": {
      "abi": [
        {
          "inputs": [
            {
              "internalType": "contract IEVMVerifier",
              "name": "_verifier",
              "type": "address"
            },
            {
              "internalType": "address",
              "name": "_target",
              "type": "address"
            }
          ],
          "stateMutability": "nonpayable",
          "type": "constructor"
        },
        {
          "inputs": [],
          "name": "CommandTooLong",
          "type": "error"
        },
        {
          "inputs": [
            {
              "internalType": "address",
              "name": "sender",
              "type": "address"
            },
            {
              "internalType": "string[]",
              "name": "urls",
              "type": "string[]"
            },
            {
              "internalType": "bytes",
              "name": "callData",
              "type": "bytes"
            },
            {
              "internalType": "bytes4",
              "name": "callbackFunction",
              "type": "bytes4"
            },
            {
              "internalType": "bytes",
              "name": "extraData",
              "type": "bytes"
            }
          ],
          "name": "OffchainLookup",
          "type": "error"
        },
        {
          "inputs": [
            {
              "internalType": "uint256",
              "name": "actual",
              "type": "uint256"
            },
            {
              "internalType": "uint256",
              "name": "expected",
              "type": "uint256"
            }
          ],
          "name": "ResponseLengthMismatch",
          "type": "error"
        },
        {
          "inputs": [
            {
              "internalType": "uint256",
              "name": "max",
              "type": "uint256"
            }
          ],
          "name": "TooManyCommands",
          "type": "error"
        },
        {
          "inputs": [],
          "name": "getAcceptedL2BlockRangeLength",
          "outputs": [
            {
              "internalType": "uint256",
              "name": "",
              "type": "uint256"
            }
          ],
          "stateMutability": "pure",
          "type": "function"
        },
        {
          "inputs": [
            {
              "internalType": "bytes32",
              "name": "attestationId",
              "type": "bytes32"
            }
          ],
          "name": "getAttestation",
          "outputs": [
            {
              "internalType": "bytes",
              "name": "",
              "type": "bytes"
            }
          ],
          "stateMutability": "view",
          "type": "function"
        },
        {
          "inputs": [
            {
              "internalType": "bytes[]",
              "name": "values",
              "type": "bytes[]"
            },
            {
              "internalType": "bytes",
              "name": "",
              "type": "bytes"
            }
          ],
          "name": "getAttestationCallback",
          "outputs": [
            {
              "internalType": "bytes",
              "name": "",
              "type": "bytes"
            }
          ],
          "stateMutability": "pure",
          "type": "function"
        },
        {
          "inputs": [
            {
              "internalType": "bytes",
              "name": "response",
              "type": "bytes"
            },
            {
              "internalType": "bytes",
              "name": "extradata",
              "type": "bytes"
            }
          ],
          "name": "getStorageSlotsCallback",
          "outputs": [
            {
              "internalType": "bytes",
              "name": "",
              "type": "bytes"
            }
          ],
          "stateMutability": "nonpayable",
          "type": "function"
        }
      ],
      "evm": {
        "bytecode": {
          "linkReferences": {},
          "object": "6080604052348015600f57600080fd5b5060405161123e38038061123e833981016040819052602c916073565b600080546001600160a01b039384166001600160a01b0319918216179091556001805492909316911617905560a8565b6001600160a01b0381168114607057600080fd5b50565b60008060408385031215608557600080fd5b8251608e81605c565b6020840151909250609d81605c565b809150509250929050565b611187806100b76000396000f3fe608060405234801561001057600080fd5b506004361061004c5760003560e01c80635bdaa916146100515780636d74e86e1461007a578063a3112a641461008b578063aa6cf55e1461009e575b600080fd5b61006461005f366004610861565b6100b1565b604051610071919061091d565b60405180910390f35b604051620151808152602001610071565b610064610099366004610930565b6101f8565b6100646100ac366004610abd565b610257565b606060006100c185870187610b21565b9050600080808080806100d6898b018b610b86565b9550955095509550955095506000866001600160a01b031663c51ca02a8787878c6101016201518090565b6040518663ffffffff1660e01b8152600401610121959493929190610d30565b600060405180830381865afa15801561013e573d6000803e3d6000fd5b505050506040513d6000823e601f3d908101601f191682016040526101669190810190610dbd565b9050845181511461019c5780518551604051632918942560e01b8152600481019290925260248201526044015b60405180910390fd5b60006101ee8483856040516024016101b5929190610e83565b60408051601f198184030181529190526020810180516001600160e01b03166001600160e01b031990931692909217909152309061027d565b9050805160208201f35b6040805160208101909152600080825254600154606092610252926355367aaf60e11b9261024b9187916102459160669161023f916001600160a01b0390811691166102c8565b90610362565b90610415565b9190610464565b919050565b60608260008151811061026c5761026c610eb1565b602002602001015190505b92915050565b60606102c1838360006040518060400160405280601e81526020017f416464726573733a206c6f772d6c6576656c2063616c6c206661696c65640000815250610599565b9392505050565b6102d06107d7565b6040805160208082526104208201909252600091808201610400803683375050604080516020808252610420820190925292935060009291508082015b606081526020019060019003908161030d5790505060008084528082526040805160a0810182526001600160a01b03808a16825288166020820152908101949094526060840152608083015250905092915050565b61036a6107d7565b604083015180518015801590610384575060208560600151105b15610394576103948560ff610676565b600181018252602085604001515111156103c457604051630251ce0160e31b815260206004820152602401610193565b6000606086018190526103d8908690610676565b61040c8561040787876040516020016103f391815260200190565b6040516020818303038152906040526106ff565b610676565b50929392505050565b61041d6107d7565b602083606001511061044257604051631601fac760e31b815260040160405180910390fd5b61045d8361040785856040516020016103f391815260200190565b5090919050565b600083604001515111801561047d575060208360600151105b1561048d5761048d8360ff610676565b3083600001516001600160a01b031663b50f2fbc6040518163ffffffff1660e01b8152600401600060405180830381865afa1580156104d0573d6000803e3d6000fd5b505050506040513d6000823e601f3d908101601f191682016040526104f89190810190610ec7565b84602001518560400151866080015160405160240161051993929190610f80565b60408051601f19818403018152918152602080830180516001600160e01b031663ea9cd3bf60e01b1790528751888201518984015160808b01519451632ded548b60e11b9561056e9590918c918c9101610fc0565b60408051601f1981840301815290829052630556f18360e41b8252610193959493929160040161102f565b6060824710156105fa5760405162461bcd60e51b815260206004820152602660248201527f416464726573733a20696e73756666696369656e742062616c616e636520666f6044820152651c8818d85b1b60d21b6064820152608401610193565b600080866001600160a01b0316858760405161061691906110dc565b60006040518083038185875af1925050503d8060008114610653576040519150601f19603f3d011682016040523d82523d6000602084013e610658565b606091505b509150915061066987838387610739565b925050505b949350505050565b6000600183604001515161068a919061110e565b60608401805191925061069c82611121565b90526106a990600861113a565b8260f81b6001600160f81b031916901c836040015182815181106106cf576106cf610eb1565b602002602001015117836040015182815181106106ee576106ee610eb1565b602002602001018181525050505050565b60808201518051600181018083529091908390829060ff851690811061072757610727610eb1565b60200260200101819052505092915050565b606083156107a85782516000036107a1576001600160a01b0385163b6107a15760405162461bcd60e51b815260206004820152601d60248201527f416464726573733a2063616c6c20746f206e6f6e2d636f6e74726163740000006044820152606401610193565b508161066e565b61066e83838151156107bd5781518083602001fd5b8060405162461bcd60e51b8152600401610193919061091d565b6040518060a0016040528060006001600160a01b0316815260200160006001600160a01b031681526020016060815260200160008152602001606081525090565b60008083601f84011261082a57600080fd5b50813567ffffffffffffffff81111561084257600080fd5b60208301915083602082850101111561085a57600080fd5b9250929050565b6000806000806040858703121561087757600080fd5b843567ffffffffffffffff8082111561088f57600080fd5b61089b88838901610818565b909650945060208701359150808211156108b457600080fd5b506108c187828801610818565b95989497509550505050565b60005b838110156108e85781810151838201526020016108d0565b50506000910152565b600081518084526109098160208601602086016108cd565b601f01601f19169290920160200192915050565b6020815260006102c160208301846108f1565b60006020828403121561094257600080fd5b5035919050565b634e487b7160e01b600052604160045260246000fd5b604051601f8201601f1916810167ffffffffffffffff8111828210171561098857610988610949565b604052919050565b600067ffffffffffffffff8211156109aa576109aa610949565b5060051b60200190565b600067ffffffffffffffff8211156109ce576109ce610949565b50601f01601f191660200190565b600082601f8301126109ed57600080fd5b8135610a006109fb826109b4565b61095f565b818152846020838601011115610a1557600080fd5b816020850160208301376000918101602001919091529392505050565b600082601f830112610a4357600080fd5b81356020610a536109fb83610990565b82815260059290921b84018101918181019086841115610a7257600080fd5b8286015b84811015610ab257803567ffffffffffffffff811115610a965760008081fd5b610aa48986838b01016109dc565b845250918301918301610a76565b509695505050505050565b60008060408385031215610ad057600080fd5b823567ffffffffffffffff80821115610ae857600080fd5b610af486838701610a32565b93506020850135915080821115610b0a57600080fd5b50610b17858286016109dc565b9150509250929050565b600060208284031215610b3357600080fd5b813567ffffffffffffffff811115610b4a57600080fd5b61066e848285016109dc565b6001600160a01b0381168114610b6b57600080fd5b50565b80356001600160e01b03198116811461025257600080fd5b60008060008060008060c08789031215610b9f57600080fd5b8635610baa81610b56565b9550602087810135610bbb81610b56565b9550604088013567ffffffffffffffff80821115610bd857600080fd5b818a0191508a601f830112610bec57600080fd5b8135610bfa6109fb82610990565b81815260059190911b8301840190848101908d831115610c1957600080fd5b938501935b82851015610c3757843582529385019390850190610c1e565b9850505060608a0135925080831115610c4f57600080fd5b610c5b8b848c01610a32565b9550610c6960808b01610b6e565b945060a08a0135925080831115610c7f57600080fd5b5050610c8d89828a016109dc565b9150509295509295509295565b60008151808452602080850194506020840160005b83811015610ccb57815187529582019590820190600101610caf565b509495945050505050565b60008282518085526020808601955060208260051b8401016020860160005b84811015610d2357601f19868403018952610d118383516108f1565b98840198925090830190600101610cf5565b5090979650505050505050565b6001600160a01b038616815260a060208201819052600090610d5490830187610c9a565b8281036040840152610d668187610cd6565b90508281036060840152610d7a81866108f1565b9150508260808301529695505050505050565b6000610d9b6109fb846109b4565b9050828152838383011115610daf57600080fd5b6102c18360208301846108cd565b60006020808385031215610dd057600080fd5b825167ffffffffffffffff80821115610de857600080fd5b818501915085601f830112610dfc57600080fd5b8151610e0a6109fb82610990565b81815260059190911b83018401908481019088831115610e2957600080fd5b8585015b83811015610e7657805185811115610e455760008081fd5b8601603f81018b13610e575760008081fd5b610e688b8983015160408401610d8d565b845250918601918601610e2d565b5098975050505050505050565b604081526000610e966040830185610cd6565b8281036020840152610ea881856108f1565b95945050505050565b634e487b7160e01b600052603260045260246000fd5b60006020808385031215610eda57600080fd5b825167ffffffffffffffff80821115610ef257600080fd5b818501915085601f830112610f0657600080fd5b8151610f146109fb82610990565b81815260059190911b83018401908481019088831115610f3357600080fd5b8585015b83811015610e7657805185811115610f4f5760008081fd5b8601603f81018b13610f615760008081fd5b610f728b8983015160408401610d8d565b845250918601918601610f37565b6001600160a01b0384168152606060208201819052600090610fa490830185610c9a565b8281036040840152610fb68185610cd6565b9695505050505050565b6001600160a01b0387811682528616602082015260c060408201819052600090610fec90830187610c9a565b8281036060840152610ffe8187610cd6565b6001600160e01b03198616608085015283810360a0850152905061102281856108f1565b9998505050505050505050565b600060a0820160018060a01b0388168352602060a0602085015281885180845260c08601915060c08160051b870101935060208a0160005b828110156110955760bf198887030184526110838683516108f1565b95509284019290840190600101611067565b505050505082810360408401526110ac81876108f1565b6001600160e01b031986166060850152905082810360808401526110d081856108f1565b98975050505050505050565b600082516110ee8184602087016108cd565b9190910192915050565b634e487b7160e01b600052601160045260246000fd5b81810381811115610277576102776110f8565b600060018201611133576111336110f8565b5060010190565b8082028115828204841417610277576102776110f856fea2646970667358221220185acc728c561679a6c36fdb2aee7426c206506705aa1d30cfde1f880fc2e2c364736f6c63430008190033",
          "opcodes": "PUSH1 0x80 PUSH1 0x40 MSTORE CALLVALUE DUP1 ISZERO PUSH1 0xF JUMPI PUSH1 0x0 DUP1 REVERT JUMPDEST POP PUSH1 0x40 MLOAD PUSH2 0x123E CODESIZE SUB DUP1 PUSH2 0x123E DUP4 CODECOPY DUP2 ADD PUSH1 0x40 DUP2 SWAP1 MSTORE PUSH1 0x2C SWAP2 PUSH1 0x73 JUMP JUMPDEST PUSH1 0x0 DUP1 SLOAD PUSH1 0x1 PUSH1 0x1 PUSH1 0xA0 SHL SUB SWAP4 DUP5 AND PUSH1 0x1 PUSH1 0x1 PUSH1 0xA0 SHL SUB NOT SWAP2 DUP3 AND OR SWAP1 SWAP2 SSTORE PUSH1 0x1 DUP1 SLOAD SWAP3 SWAP1 SWAP4 AND SWAP2 AND OR SWAP1 SSTORE PUSH1 0xA8 JUMP JUMPDEST PUSH1 0x1 PUSH1 0x1 PUSH1 0xA0 SHL SUB DUP2 AND DUP2 EQ PUSH1 0x70 JUMPI PUSH1 0x0 DUP1 REVERT JUMPDEST POP JUMP JUMPDEST PUSH1 0x0 DUP1 PUSH1 0x40 DUP4 DUP6 SUB SLT ISZERO PUSH1 0x85 JUMPI PUSH1 0x0 DUP1 REVERT JUMPDEST DUP3 MLOAD PUSH1 0x8E DUP2 PUSH1 0x5C JUMP JUMPDEST PUSH1 0x20 DUP5 ADD MLOAD SWAP1 SWAP3 POP PUSH1 0x9D DUP2 PUSH1 0x5C JUMP JUMPDEST DUP1 SWAP2 POP POP SWAP3 POP SWAP3 SWAP1 POP JUMP JUMPDEST PUSH2 0x1187 DUP1 PUSH2 0xB7 PUSH1 0x0 CODECOPY PUSH1 0x0 RETURN INVALID PUSH1 0x80 PUSH1 0x40 MSTORE CALLVALUE DUP1 ISZERO PUSH2 0x10 JUMPI PUSH1 0x0 DUP1 REVERT JUMPDEST POP PUSH1 0x4 CALLDATASIZE LT PUSH2 0x4C JUMPI PUSH1 0x0 CALLDATALOAD PUSH1 0xE0 SHR DUP1 PUSH4 0x5BDAA916 EQ PUSH2 0x51 JUMPI DUP1 PUSH4 0x6D74E86E EQ PUSH2 0x7A JUMPI DUP1 PUSH4 0xA3112A64 EQ PUSH2 0x8B JUMPI DUP1 PUSH4 0xAA6CF55E EQ PUSH2 0x9E JUMPI JUMPDEST PUSH1 0x0 DUP1 REVERT JUMPDEST PUSH2 0x64 PUSH2 0x5F CALLDATASIZE PUSH1 0x4 PUSH2 0x861 JUMP JUMPDEST PUSH2 0xB1 JUMP JUMPDEST PUSH1 0x40 MLOAD PUSH2 0x71 SWAP2 SWAP1 PUSH2 0x91D JUMP JUMPDEST PUSH1 0x40 MLOAD DUP1 SWAP2 SUB SWAP1 RETURN JUMPDEST PUSH1 0x40 MLOAD PUSH3 0x15180 DUP2 MSTORE PUSH1 0x20 ADD PUSH2 0x71 JUMP JUMPDEST PUSH2 0x64 PUSH2 0x99 CALLDATASIZE PUSH1 0x4 PUSH2 0x930 JUMP JUMPDEST PUSH2 0x1F8 JUMP JUMPDEST PUSH2 0x64 PUSH2 0xAC CALLDATASIZE PUSH1 0x4 PUSH2 0xABD JUMP JUMPDEST PUSH2 0x257 JUMP JUMPDEST PUSH1 0x60 PUSH1 0x0 PUSH2 0xC1 DUP6 DUP8 ADD DUP8 PUSH2 0xB21 JUMP JUMPDEST SWAP1 POP PUSH1 0x0 DUP1 DUP1 DUP1 DUP1 DUP1 PUSH2 0xD6 DUP10 DUP12 ADD DUP12 PUSH2 0xB86 JUMP JUMPDEST SWAP6 POP SWAP6 POP SWAP6 POP SWAP6 POP SWAP6 POP SWAP6 POP PUSH1 0x0 DUP7 PUSH1 0x1 PUSH1 0x1 PUSH1 0xA0 SHL SUB AND PUSH4 0xC51CA02A DUP8 DUP8 DUP8 DUP13 PUSH2 0x101 PUSH3 0x15180 SWAP1 JUMP JUMPDEST PUSH1 0x40 MLOAD DUP7 PUSH4 0xFFFFFFFF AND PUSH1 0xE0 SHL DUP2 MSTORE PUSH1 0x4 ADD PUSH2 0x121 SWAP6 SWAP5 SWAP4 SWAP3 SWAP2 SWAP1 PUSH2 0xD30 JUMP JUMPDEST PUSH1 0x0 PUSH1 0x40 MLOAD DUP1 DUP4 SUB DUP2 DUP7 GAS STATICCALL ISZERO DUP1 ISZERO PUSH2 0x13E JUMPI RETURNDATASIZE PUSH1 0x0 DUP1 RETURNDATACOPY RETURNDATASIZE PUSH1 0x0 REVERT JUMPDEST POP POP POP POP PUSH1 0x40 MLOAD RETURNDATASIZE PUSH1 0x0 DUP3 RETURNDATACOPY PUSH1 0x1F RETURNDATASIZE SWAP1 DUP2 ADD PUSH1 0x1F NOT AND DUP3 ADD PUSH1 0x40 MSTORE PUSH2 0x166 SWAP2 SWAP1 DUP2 ADD SWAP1 PUSH2 0xDBD JUMP JUMPDEST SWAP1 POP DUP5 MLOAD DUP2 MLOAD EQ PUSH2 0x19C JUMPI DUP1 MLOAD DUP6 MLOAD PUSH1 0x40 MLOAD PUSH4 0x29189425 PUSH1 0xE0 SHL DUP2 MSTORE PUSH1 0x4 DUP2 ADD SWAP3 SWAP1 SWAP3 MSTORE PUSH1 0x24 DUP3 ADD MSTORE PUSH1 0x44 ADD JUMPDEST PUSH1 0x40 MLOAD DUP1 SWAP2 SUB SWAP1 REVERT JUMPDEST PUSH1 0x0 PUSH2 0x1EE DUP5 DUP4 DUP6 PUSH1 0x40 MLOAD PUSH1 0x24 ADD PUSH2 0x1B5 SWAP3 SWAP2 SWAP1 PUSH2 0xE83 JUMP JUMPDEST PUSH1 0x40 DUP1 MLOAD PUSH1 0x1F NOT DUP2 DUP5 SUB ADD DUP2 MSTORE SWAP2 SWAP1 MSTORE PUSH1 0x20 DUP2 ADD DUP1 MLOAD PUSH1 0x1 PUSH1 0x1 PUSH1 0xE0 SHL SUB AND PUSH1 0x1 PUSH1 0x1 PUSH1 0xE0 SHL SUB NOT SWAP1 SWAP4 AND SWAP3 SWAP1 SWAP3 OR SWAP1 SWAP2 MSTORE ADDRESS SWAP1 PUSH2 0x27D JUMP JUMPDEST SWAP1 POP DUP1 MLOAD PUSH1 0x20 DUP3 ADD RETURN JUMPDEST PUSH1 0x40 DUP1 MLOAD PUSH1 0x20 DUP2 ADD SWAP1 SWAP2 MSTORE PUSH1 0x0 DUP1 DUP3 MSTORE SLOAD PUSH1 0x1 SLOAD PUSH1 0x60 SWAP3 PUSH2 0x252 SWAP3 PUSH4 0x55367AAF PUSH1 0xE1 SHL SWAP3 PUSH2 0x24B SWAP2 DUP8 SWAP2 PUSH2 0x245 SWAP2 PUSH1 0x66 SWAP2 PUSH2 0x23F SWAP2 PUSH1 0x1 PUSH1 0x1 PUSH1 0xA0 SHL SUB SWAP1 DUP2 AND SWAP2 AND PUSH2 0x2C8 JUMP JUMPDEST SWAP1 PUSH2 0x362 JUMP JUMPDEST SWAP1 PUSH2 0x415 JUMP JUMPDEST SWAP2 SWAP1 PUSH2 0x464 JUMP JUMPDEST SWAP2 SWAP1 POP JUMP JUMPDEST PUSH1 0x60 DUP3 PUSH1 0x0 DUP2 MLOAD DUP2 LT PUSH2 0x26C JUMPI PUSH2 0x26C PUSH2 0xEB1 JUMP JUMPDEST PUSH1 0x20 MUL PUSH1 0x20 ADD ADD MLOAD SWAP1 POP JUMPDEST SWAP3 SWAP2 POP POP JUMP JUMPDEST PUSH1 0x60 PUSH2 0x2C1 DUP4 DUP4 PUSH1 0x0 PUSH1 0x40 MLOAD DUP1 PUSH1 0x40 ADD PUSH1 0x40 MSTORE DUP1 PUSH1 0x1E DUP2 MSTORE PUSH1 0x20 ADD PUSH32 0x416464726573733A206C6F772D6C6576656C2063616C6C206661696C65640000 DUP2 MSTORE POP PUSH2 0x599 JUMP JUMPDEST SWAP4 SWAP3 POP POP POP JUMP JUMPDEST PUSH2 0x2D0 PUSH2 0x7D7 JUMP JUMPDEST PUSH1 0x40 DUP1 MLOAD PUSH1 0x20 DUP1 DUP3 MSTORE PUSH2 0x420 DUP3 ADD SWAP1 SWAP3 MSTORE PUSH1 0x0 SWAP2 DUP1 DUP3 ADD PUSH2 0x400 DUP1 CALLDATASIZE DUP4 CALLDATACOPY POP POP PUSH1 0x40 DUP1 MLOAD PUSH1 0x20 DUP1 DUP3 MSTORE PUSH2 0x420 DUP3 ADD SWAP1 SWAP3 MSTORE SWAP3 SWAP4 POP PUSH1 0x0 SWAP3 SWAP2 POP DUP1 DUP3 ADD JUMPDEST PUSH1 0x60 DUP2 MSTORE PUSH1 0x20 ADD SWAP1 PUSH1 0x1 SWAP1 SUB SWAP1 DUP2 PUSH2 0x30D JUMPI SWAP1 POP POP PUSH1 0x0 DUP1 DUP5 MSTORE DUP1 DUP3 MSTORE PUSH1 0x40 DUP1 MLOAD PUSH1 0xA0 DUP2 ADD DUP3 MSTORE PUSH1 0x1 PUSH1 0x1 PUSH1 0xA0 SHL SUB DUP1 DUP11 AND DUP3 MSTORE DUP9 AND PUSH1 0x20 DUP3 ADD MSTORE SWAP1 DUP2 ADD SWAP5 SWAP1 SWAP5 MSTORE PUSH1 0x60 DUP5 ADD MSTORE PUSH1 0x80 DUP4 ADD MSTORE POP SWAP1 POP SWAP3 SWAP2 POP POP JUMP JUMPDEST PUSH2 0x36A PUSH2 0x7D7 JUMP JUMPDEST PUSH1 0x40 DUP4 ADD MLOAD DUP1 MLOAD DUP1 ISZERO DUP1 ISZERO SWAP1 PUSH2 0x384 JUMPI POP PUSH1 0x20 DUP6 PUSH1 0x60 ADD MLOAD LT JUMPDEST ISZERO PUSH2 0x394 JUMPI PUSH2 0x394 DUP6 PUSH1 0xFF PUSH2 0x676 JUMP JUMPDEST PUSH1 0x1 DUP2 ADD DUP3 MSTORE PUSH1 0x20 DUP6 PUSH1 0x40 ADD MLOAD MLOAD GT ISZERO PUSH2 0x3C4 JUMPI PUSH1 0x40 MLOAD PUSH4 0x251CE01 PUSH1 0xE3 SHL DUP2 MSTORE PUSH1 0x20 PUSH1 0x4 DUP3 ADD MSTORE PUSH1 0x24 ADD PUSH2 0x193 JUMP JUMPDEST PUSH1 0x0 PUSH1 0x60 DUP7 ADD DUP2 SWAP1 MSTORE PUSH2 0x3D8 SWAP1 DUP7 SWAP1 PUSH2 0x676 JUMP JUMPDEST PUSH2 0x40C DUP6 PUSH2 0x407 DUP8 DUP8 PUSH1 0x40 MLOAD PUSH1 0x20 ADD PUSH2 0x3F3 SWAP2 DUP2 MSTORE PUSH1 0x20 ADD SWAP1 JUMP JUMPDEST PUSH1 0x40 MLOAD PUSH1 0x20 DUP2 DUP4 SUB SUB DUP2 MSTORE SWAP1 PUSH1 0x40 MSTORE PUSH2 0x6FF JUMP JUMPDEST PUSH2 0x676 JUMP JUMPDEST POP SWAP3 SWAP4 SWAP3 POP POP POP JUMP JUMPDEST PUSH2 0x41D PUSH2 0x7D7 JUMP JUMPDEST PUSH1 0x20 DUP4 PUSH1 0x60 ADD MLOAD LT PUSH2 0x442 JUMPI PUSH1 0x40 MLOAD PUSH4 0x1601FAC7 PUSH1 0xE3 SHL DUP2 MSTORE PUSH1 0x4 ADD PUSH1 0x40 MLOAD DUP1 SWAP2 SUB SWAP1 REVERT JUMPDEST PUSH2 0x45D DUP4 PUSH2 0x407 DUP6 DUP6 PUSH1 0x40 MLOAD PUSH1 0x20 ADD PUSH2 0x3F3 SWAP2 DUP2 MSTORE PUSH1 0x20 ADD SWAP1 JUMP JUMPDEST POP SWAP1 SWAP2 SWAP1 POP JUMP JUMPDEST PUSH1 0x0 DUP4 PUSH1 0x40 ADD MLOAD MLOAD GT DUP1 ISZERO PUSH2 0x47D JUMPI POP PUSH1 0x20 DUP4 PUSH1 0x60 ADD MLOAD LT JUMPDEST ISZERO PUSH2 0x48D JUMPI PUSH2 0x48D DUP4 PUSH1 0xFF PUSH2 0x676 JUMP JUMPDEST ADDRESS DUP4 PUSH1 0x0 ADD MLOAD PUSH1 0x1 PUSH1 0x1 PUSH1 0xA0 SHL SUB AND PUSH4 0xB50F2FBC PUSH1 0x40 MLOAD DUP2 PUSH4 0xFFFFFFFF AND PUSH1 0xE0 SHL DUP2 MSTORE PUSH1 0x4 ADD PUSH1 0x0 PUSH1 0x40 MLOAD DUP1 DUP4 SUB DUP2 DUP7 GAS STATICCALL ISZERO DUP1 ISZERO PUSH2 0x4D0 JUMPI RETURNDATASIZE PUSH1 0x0 DUP1 RETURNDATACOPY RETURNDATASIZE PUSH1 0x0 REVERT JUMPDEST POP POP POP POP PUSH1 0x40 MLOAD RETURNDATASIZE PUSH1 0x0 DUP3 RETURNDATACOPY PUSH1 0x1F RETURNDATASIZE SWAP1 DUP2 ADD PUSH1 0x1F NOT AND DUP3 ADD PUSH1 0x40 MSTORE PUSH2 0x4F8 SWAP2 SWAP1 DUP2 ADD SWAP1 PUSH2 0xEC7 JUMP JUMPDEST DUP5 PUSH1 0x20 ADD MLOAD DUP6 PUSH1 0x40 ADD MLOAD DUP7 PUSH1 0x80 ADD MLOAD PUSH1 0x40 MLOAD PUSH1 0x24 ADD PUSH2 0x519 SWAP4 SWAP3 SWAP2 SWAP1 PUSH2 0xF80 JUMP JUMPDEST PUSH1 0x40 DUP1 MLOAD PUSH1 0x1F NOT DUP2 DUP5 SUB ADD DUP2 MSTORE SWAP2 DUP2 MSTORE PUSH1 0x20 DUP1 DUP4 ADD DUP1 MLOAD PUSH1 0x1 PUSH1 0x1 PUSH1 0xE0 SHL SUB AND PUSH4 0xEA9CD3BF PUSH1 0xE0 SHL OR SWAP1 MSTORE DUP8 MLOAD DUP9 DUP3 ADD MLOAD DUP10 DUP5 ADD MLOAD PUSH1 0x80 DUP12 ADD MLOAD SWAP5 MLOAD PUSH4 0x2DED548B PUSH1 0xE1 SHL SWAP6 PUSH2 0x56E SWAP6 SWAP1 SWAP2 DUP13 SWAP2 DUP13 SWAP2 ADD PUSH2 0xFC0 JUMP JUMPDEST PUSH1 0x40 DUP1 MLOAD PUSH1 0x1F NOT DUP2 DUP5 SUB ADD DUP2 MSTORE SWAP1 DUP3 SWAP1 MSTORE PUSH4 0x556F183 PUSH1 0xE4 SHL DUP3 MSTORE PUSH2 0x193 SWAP6 SWAP5 SWAP4 SWAP3 SWAP2 PUSH1 0x4 ADD PUSH2 0x102F JUMP JUMPDEST PUSH1 0x60 DUP3 SELFBALANCE LT ISZERO PUSH2 0x5FA JUMPI PUSH1 0x40 MLOAD PUSH3 0x461BCD PUSH1 0xE5 SHL DUP2 MSTORE PUSH1 0x20 PUSH1 0x4 DUP3 ADD MSTORE PUSH1 0x26 PUSH1 0x24 DUP3 ADD MSTORE PUSH32 0x416464726573733A20696E73756666696369656E742062616C616E636520666F PUSH1 0x44 DUP3 ADD MSTORE PUSH6 0x1C8818D85B1B PUSH1 0xD2 SHL PUSH1 0x64 DUP3 ADD MSTORE PUSH1 0x84 ADD PUSH2 0x193 JUMP JUMPDEST PUSH1 0x0 DUP1 DUP7 PUSH1 0x1 PUSH1 0x1 PUSH1 0xA0 SHL SUB AND DUP6 DUP8 PUSH1 0x40 MLOAD PUSH2 0x616 SWAP2 SWAP1 PUSH2 0x10DC JUMP JUMPDEST PUSH1 0x0 PUSH1 0x40 MLOAD DUP1 DUP4 SUB DUP2 DUP6 DUP8 GAS CALL SWAP3 POP POP POP RETURNDATASIZE DUP1 PUSH1 0x0 DUP2 EQ PUSH2 0x653 JUMPI PUSH1 0x40 MLOAD SWAP2 POP PUSH1 0x1F NOT PUSH1 0x3F RETURNDATASIZE ADD AND DUP3 ADD PUSH1 0x40 MSTORE RETURNDATASIZE DUP3 MSTORE RETURNDATASIZE PUSH1 0x0 PUSH1 0x20 DUP5 ADD RETURNDATACOPY PUSH2 0x658 JUMP JUMPDEST PUSH1 0x60 SWAP2 POP JUMPDEST POP SWAP2 POP SWAP2 POP PUSH2 0x669 DUP8 DUP4 DUP4 DUP8 PUSH2 0x739 JUMP JUMPDEST SWAP3 POP POP POP JUMPDEST SWAP5 SWAP4 POP POP POP POP JUMP JUMPDEST PUSH1 0x0 PUSH1 0x1 DUP4 PUSH1 0x40 ADD MLOAD MLOAD PUSH2 0x68A SWAP2 SWAP1 PUSH2 0x110E JUMP JUMPDEST PUSH1 0x60 DUP5 ADD DUP1 MLOAD SWAP2 SWAP3 POP PUSH2 0x69C DUP3 PUSH2 0x1121 JUMP JUMPDEST SWAP1 MSTORE PUSH2 0x6A9 SWAP1 PUSH1 0x8 PUSH2 0x113A JUMP JUMPDEST DUP3 PUSH1 0xF8 SHL PUSH1 0x1 PUSH1 0x1 PUSH1 0xF8 SHL SUB NOT AND SWAP1 SHR DUP4 PUSH1 0x40 ADD MLOAD DUP3 DUP2 MLOAD DUP2 LT PUSH2 0x6CF JUMPI PUSH2 0x6CF PUSH2 0xEB1 JUMP JUMPDEST PUSH1 0x20 MUL PUSH1 0x20 ADD ADD MLOAD OR DUP4 PUSH1 0x40 ADD MLOAD DUP3 DUP2 MLOAD DUP2 LT PUSH2 0x6EE JUMPI PUSH2 0x6EE PUSH2 0xEB1 JUMP JUMPDEST PUSH1 0x20 MUL PUSH1 0x20 ADD ADD DUP2 DUP2 MSTORE POP POP POP POP POP JUMP JUMPDEST PUSH1 0x80 DUP3 ADD MLOAD DUP1 MLOAD PUSH1 0x1 DUP2 ADD DUP1 DUP4 MSTORE SWAP1 SWAP2 SWAP1 DUP4 SWAP1 DUP3 SWAP1 PUSH1 0xFF DUP6 AND SWAP1 DUP2 LT PUSH2 0x727 JUMPI PUSH2 0x727 PUSH2 0xEB1 JUMP JUMPDEST PUSH1 0x20 MUL PUSH1 0x20 ADD ADD DUP2 SWAP1 MSTORE POP POP SWAP3 SWAP2 POP POP JUMP JUMPDEST PUSH1 0x60 DUP4 ISZERO PUSH2 0x7A8 JUMPI DUP3 MLOAD PUSH1 0x0 SUB PUSH2 0x7A1 JUMPI PUSH1 0x1 PUSH1 0x1 PUSH1 0xA0 SHL SUB DUP6 AND EXTCODESIZE PUSH2 0x7A1 JUMPI PUSH1 0x40 MLOAD PUSH3 0x461BCD PUSH1 0xE5 SHL DUP2 MSTORE PUSH1 0x20 PUSH1 0x4 DUP3 ADD MSTORE PUSH1 0x1D PUSH1 0x24 DUP3 ADD MSTORE PUSH32 0x416464726573733A2063616C6C20746F206E6F6E2D636F6E7472616374000000 PUSH1 0x44 DUP3 ADD MSTORE PUSH1 0x64 ADD PUSH2 0x193 JUMP JUMPDEST POP DUP2 PUSH2 0x66E JUMP JUMPDEST PUSH2 0x66E DUP4 DUP4 DUP2 MLOAD ISZERO PUSH2 0x7BD JUMPI DUP2 MLOAD DUP1 DUP4 PUSH1 0x20 ADD REVERT JUMPDEST DUP1 PUSH1 0x40 MLOAD PUSH3 0x461BCD PUSH1 0xE5 SHL DUP2 MSTORE PUSH1 0x4 ADD PUSH2 0x193 SWAP2 SWAP1 PUSH2 0x91D JUMP JUMPDEST PUSH1 0x40 MLOAD DUP1 PUSH1 0xA0 ADD PUSH1 0x40 MSTORE DUP1 PUSH1 0x0 PUSH1 0x1 PUSH1 0x1 PUSH1 0xA0 SHL SUB AND DUP2 MSTORE PUSH1 0x20 ADD PUSH1 0x0 PUSH1 0x1 PUSH1 0x1 PUSH1 0xA0 SHL SUB AND DUP2 MSTORE PUSH1 0x20 ADD PUSH1 0x60 DUP2 MSTORE PUSH1 0x20 ADD PUSH1 0x0 DUP2 MSTORE PUSH1 0x20 ADD PUSH1 0x60 DUP2 MSTORE POP SWAP1 JUMP JUMPDEST PUSH1 0x0 DUP1 DUP4 PUSH1 0x1F DUP5 ADD SLT PUSH2 0x82A JUMPI PUSH1 0x0 DUP1 REVERT JUMPDEST POP DUP2 CALLDATALOAD PUSH8 0xFFFFFFFFFFFFFFFF DUP2 GT ISZERO PUSH2 0x842 JUMPI PUSH1 0x0 DUP1 REVERT JUMPDEST PUSH1 0x20 DUP4 ADD SWAP2 POP DUP4 PUSH1 0x20 DUP3 DUP6 ADD ADD GT ISZERO PUSH2 0x85A JUMPI PUSH1 0x0 DUP1 REVERT JUMPDEST SWAP3 POP SWAP3 SWAP1 POP JUMP JUMPDEST PUSH1 0x0 DUP1 PUSH1 0x0 DUP1 PUSH1 0x40 DUP6 DUP8 SUB SLT ISZERO PUSH2 0x877 JUMPI PUSH1 0x0 DUP1 REVERT JUMPDEST DUP5 CALLDATALOAD PUSH8 0xFFFFFFFFFFFFFFFF DUP1 DUP3 GT ISZERO PUSH2 0x88F JUMPI PUSH1 0x0 DUP1 REVERT JUMPDEST PUSH2 0x89B DUP9 DUP4 DUP10 ADD PUSH2 0x818 JUMP JUMPDEST SWAP1 SWAP7 POP SWAP5 POP PUSH1 0x20 DUP8 ADD CALLDATALOAD SWAP2 POP DUP1 DUP3 GT ISZERO PUSH2 0x8B4 JUMPI PUSH1 0x0 DUP1 REVERT JUMPDEST POP PUSH2 0x8C1 DUP8 DUP3 DUP9 ADD PUSH2 0x818 JUMP JUMPDEST SWAP6 SWAP9 SWAP5 SWAP8 POP SWAP6 POP POP POP POP JUMP JUMPDEST PUSH1 0x0 JUMPDEST DUP4 DUP2 LT ISZERO PUSH2 0x8E8 JUMPI DUP2 DUP2 ADD MLOAD DUP4 DUP3 ADD MSTORE PUSH1 0x20 ADD PUSH2 0x8D0 JUMP JUMPDEST POP POP PUSH1 0x0 SWAP2 ADD MSTORE JUMP JUMPDEST PUSH1 0x0 DUP2 MLOAD DUP1 DUP5 MSTORE PUSH2 0x909 DUP2 PUSH1 0x20 DUP7 ADD PUSH1 0x20 DUP7 ADD PUSH2 0x8CD JUMP JUMPDEST PUSH1 0x1F ADD PUSH1 0x1F NOT AND SWAP3 SWAP1 SWAP3 ADD PUSH1 0x20 ADD SWAP3 SWAP2 POP POP JUMP JUMPDEST PUSH1 0x20 DUP2 MSTORE PUSH1 0x0 PUSH2 0x2C1 PUSH1 0x20 DUP4 ADD DUP5 PUSH2 0x8F1 JUMP JUMPDEST PUSH1 0x0 PUSH1 0x20 DUP3 DUP5 SUB SLT ISZERO PUSH2 0x942 JUMPI PUSH1 0x0 DUP1 REVERT JUMPDEST POP CALLDATALOAD SWAP2 SWAP1 POP JUMP JUMPDEST PUSH4 0x4E487B71 PUSH1 0xE0 SHL PUSH1 0x0 MSTORE PUSH1 0x41 PUSH1 0x4 MSTORE PUSH1 0x24 PUSH1 0x0 REVERT JUMPDEST PUSH1 0x40 MLOAD PUSH1 0x1F DUP3 ADD PUSH1 0x1F NOT AND DUP2 ADD PUSH8 0xFFFFFFFFFFFFFFFF DUP2 GT DUP3 DUP3 LT OR ISZERO PUSH2 0x988 JUMPI PUSH2 0x988 PUSH2 0x949 JUMP JUMPDEST PUSH1 0x40 MSTORE SWAP2 SWAP1 POP JUMP JUMPDEST PUSH1 0x0 PUSH8 0xFFFFFFFFFFFFFFFF DUP3 GT ISZERO PUSH2 0x9AA JUMPI PUSH2 0x9AA PUSH2 0x949 JUMP JUMPDEST POP PUSH1 0x5 SHL PUSH1 0x20 ADD SWAP1 JUMP JUMPDEST PUSH1 0x0 PUSH8 0xFFFFFFFFFFFFFFFF DUP3 GT ISZERO PUSH2 0x9CE JUMPI PUSH2 0x9CE PUSH2 0x949 JUMP JUMPDEST POP PUSH1 0x1F ADD PUSH1 0x1F NOT AND PUSH1 0x20 ADD SWAP1 JUMP JUMPDEST PUSH1 0x0 DUP3 PUSH1 0x1F DUP4 ADD SLT PUSH2 0x9ED JUMPI PUSH1 0x0 DUP1 REVERT JUMPDEST DUP2 CALLDATALOAD PUSH2 0xA00 PUSH2 0x9FB DUP3 PUSH2 0x9B4 JUMP JUMPDEST PUSH2 0x95F JUMP JUMPDEST DUP2 DUP2 MSTORE DUP5 PUSH1 0x20 DUP4 DUP7 ADD ADD GT ISZERO PUSH2 0xA15 JUMPI PUSH1 0x0 DUP1 REVERT JUMPDEST DUP2 PUSH1 0x20 DUP6 ADD PUSH1 0x20 DUP4 ADD CALLDATACOPY PUSH1 0x0 SWAP2 DUP2 ADD PUSH1 0x20 ADD SWAP2 SWAP1 SWAP2 MSTORE SWAP4 SWAP3 POP POP POP JUMP JUMPDEST PUSH1 0x0 DUP3 PUSH1 0x1F DUP4 ADD SLT PUSH2 0xA43 JUMPI PUSH1 0x0 DUP1 REVERT JUMPDEST DUP2 CALLDATALOAD PUSH1 0x20 PUSH2 0xA53 PUSH2 0x9FB DUP4 PUSH2 0x990 JUMP JUMPDEST DUP3 DUP2 MSTORE PUSH1 0x5 SWAP3 SWAP1 SWAP3 SHL DUP5 ADD DUP2 ADD SWAP2 DUP2 DUP2 ADD SWAP1 DUP7 DUP5 GT ISZERO PUSH2 0xA72 JUMPI PUSH1 0x0 DUP1 REVERT JUMPDEST DUP3 DUP7 ADD JUMPDEST DUP5 DUP2 LT ISZERO PUSH2 0xAB2 JUMPI DUP1 CALLDATALOAD PUSH8 0xFFFFFFFFFFFFFFFF DUP2 GT ISZERO PUSH2 0xA96 JUMPI PUSH1 0x0 DUP1 DUP2 REVERT JUMPDEST PUSH2 0xAA4 DUP10 DUP7 DUP4 DUP12 ADD ADD PUSH2 0x9DC JUMP JUMPDEST DUP5 MSTORE POP SWAP2 DUP4 ADD SWAP2 DUP4 ADD PUSH2 0xA76 JUMP JUMPDEST POP SWAP7 SWAP6 POP POP POP POP POP POP JUMP JUMPDEST PUSH1 0x0 DUP1 PUSH1 0x40 DUP4 DUP6 SUB SLT ISZERO PUSH2 0xAD0 JUMPI PUSH1 0x0 DUP1 REVERT JUMPDEST DUP3 CALLDATALOAD PUSH8 0xFFFFFFFFFFFFFFFF DUP1 DUP3 GT ISZERO PUSH2 0xAE8 JUMPI PUSH1 0x0 DUP1 REVERT JUMPDEST PUSH2 0xAF4 DUP7 DUP4 DUP8 ADD PUSH2 0xA32 JUMP JUMPDEST SWAP4 POP PUSH1 0x20 DUP6 ADD CALLDATALOAD SWAP2 POP DUP1 DUP3 GT ISZERO PUSH2 0xB0A JUMPI PUSH1 0x0 DUP1 REVERT JUMPDEST POP PUSH2 0xB17 DUP6 DUP3 DUP7 ADD PUSH2 0x9DC JUMP JUMPDEST SWAP2 POP POP SWAP3 POP SWAP3 SWAP1 POP JUMP JUMPDEST PUSH1 0x0 PUSH1 0x20 DUP3 DUP5 SUB SLT ISZERO PUSH2 0xB33 JUMPI PUSH1 0x0 DUP1 REVERT JUMPDEST DUP2 CALLDATALOAD PUSH8 0xFFFFFFFFFFFFFFFF DUP2 GT ISZERO PUSH2 0xB4A JUMPI PUSH1 0x0 DUP1 REVERT JUMPDEST PUSH2 0x66E DUP5 DUP3 DUP6 ADD PUSH2 0x9DC JUMP JUMPDEST PUSH1 0x1 PUSH1 0x1 PUSH1 0xA0 SHL SUB DUP2 AND DUP2 EQ PUSH2 0xB6B JUMPI PUSH1 0x0 DUP1 REVERT JUMPDEST POP JUMP JUMPDEST DUP1 CALLDATALOAD PUSH1 0x1 PUSH1 0x1 PUSH1 0xE0 SHL SUB NOT DUP2 AND DUP2 EQ PUSH2 0x252 JUMPI PUSH1 0x0 DUP1 REVERT JUMPDEST PUSH1 0x0 DUP1 PUSH1 0x0 DUP1 PUSH1 0x0 DUP1 PUSH1 0xC0 DUP8 DUP10 SUB SLT ISZERO PUSH2 0xB9F JUMPI PUSH1 0x0 DUP1 REVERT JUMPDEST DUP7 CALLDATALOAD PUSH2 0xBAA DUP2 PUSH2 0xB56 JUMP JUMPDEST SWAP6 POP PUSH1 0x20 DUP8 DUP2 ADD CALLDATALOAD PUSH2 0xBBB DUP2 PUSH2 0xB56 JUMP JUMPDEST SWAP6 POP PUSH1 0x40 DUP9 ADD CALLDATALOAD PUSH8 0xFFFFFFFFFFFFFFFF DUP1 DUP3 GT ISZERO PUSH2 0xBD8 JUMPI PUSH1 0x0 DUP1 REVERT JUMPDEST DUP2 DUP11 ADD SWAP2 POP DUP11 PUSH1 0x1F DUP4 ADD SLT PUSH2 0xBEC JUMPI PUSH1 0x0 DUP1 REVERT JUMPDEST DUP2 CALLDATALOAD PUSH2 0xBFA PUSH2 0x9FB DUP3 PUSH2 0x990 JUMP JUMPDEST DUP2 DUP2 MSTORE PUSH1 0x5 SWAP2 SWAP1 SWAP2 SHL DUP4 ADD DUP5 ADD SWAP1 DUP5 DUP2 ADD SWAP1 DUP14 DUP4 GT ISZERO PUSH2 0xC19 JUMPI PUSH1 0x0 DUP1 REVERT JUMPDEST SWAP4 DUP6 ADD SWAP4 JUMPDEST DUP3 DUP6 LT ISZERO PUSH2 0xC37 JUMPI DUP5 CALLDATALOAD DUP3 MSTORE SWAP4 DUP6 ADD SWAP4 SWAP1 DUP6 ADD SWAP1 PUSH2 0xC1E JUMP JUMPDEST SWAP9 POP POP POP PUSH1 0x60 DUP11 ADD CALLDATALOAD SWAP3 POP DUP1 DUP4 GT ISZERO PUSH2 0xC4F JUMPI PUSH1 0x0 DUP1 REVERT JUMPDEST PUSH2 0xC5B DUP12 DUP5 DUP13 ADD PUSH2 0xA32 JUMP JUMPDEST SWAP6 POP PUSH2 0xC69 PUSH1 0x80 DUP12 ADD PUSH2 0xB6E JUMP JUMPDEST SWAP5 POP PUSH1 0xA0 DUP11 ADD CALLDATALOAD SWAP3 POP DUP1 DUP4 GT ISZERO PUSH2 0xC7F JUMPI PUSH1 0x0 DUP1 REVERT JUMPDEST POP POP PUSH2 0xC8D DUP10 DUP3 DUP11 ADD PUSH2 0x9DC JUMP JUMPDEST SWAP2 POP POP SWAP3 SWAP6 POP SWAP3 SWAP6 POP SWAP3 SWAP6 JUMP JUMPDEST PUSH1 0x0 DUP2 MLOAD DUP1 DUP5 MSTORE PUSH1 0x20 DUP1 DUP6 ADD SWAP5 POP PUSH1 0x20 DUP5 ADD PUSH1 0x0 JUMPDEST DUP4 DUP2 LT ISZERO PUSH2 0xCCB JUMPI DUP2 MLOAD DUP8 MSTORE SWAP6 DUP3 ADD SWAP6 SWAP1 DUP3 ADD SWAP1 PUSH1 0x1 ADD PUSH2 0xCAF JUMP JUMPDEST POP SWAP5 SWAP6 SWAP5 POP POP POP POP POP JUMP JUMPDEST PUSH1 0x0 DUP3 DUP3 MLOAD DUP1 DUP6 MSTORE PUSH1 0x20 DUP1 DUP7 ADD SWAP6 POP PUSH1 0x20 DUP3 PUSH1 0x5 SHL DUP5 ADD ADD PUSH1 0x20 DUP7 ADD PUSH1 0x0 JUMPDEST DUP5 DUP2 LT ISZERO PUSH2 0xD23 JUMPI PUSH1 0x1F NOT DUP7 DUP5 SUB ADD DUP10 MSTORE PUSH2 0xD11 DUP4 DUP4 MLOAD PUSH2 0x8F1 JUMP JUMPDEST SWAP9 DUP5 ADD SWAP9 SWAP3 POP SWAP1 DUP4 ADD SWAP1 PUSH1 0x1 ADD PUSH2 0xCF5 JUMP JUMPDEST POP SWAP1 SWAP8 SWAP7 POP POP POP POP POP POP POP JUMP JUMPDEST PUSH1 0x1 PUSH1 0x1 PUSH1 0xA0 SHL SUB DUP7 AND DUP2 MSTORE PUSH1 0xA0 PUSH1 0x20 DUP3 ADD DUP2 SWAP1 MSTORE PUSH1 0x0 SWAP1 PUSH2 0xD54 SWAP1 DUP4 ADD DUP8 PUSH2 0xC9A JUMP JUMPDEST DUP3 DUP2 SUB PUSH1 0x40 DUP5 ADD MSTORE PUSH2 0xD66 DUP2 DUP8 PUSH2 0xCD6 JUMP JUMPDEST SWAP1 POP DUP3 DUP2 SUB PUSH1 0x60 DUP5 ADD MSTORE PUSH2 0xD7A DUP2 DUP7 PUSH2 0x8F1 JUMP JUMPDEST SWAP2 POP POP DUP3 PUSH1 0x80 DUP4 ADD MSTORE SWAP7 SWAP6 POP POP POP POP POP POP JUMP JUMPDEST PUSH1 0x0 PUSH2 0xD9B PUSH2 0x9FB DUP5 PUSH2 0x9B4 JUMP JUMPDEST SWAP1 POP DUP3 DUP2 MSTORE DUP4 DUP4 DUP4 ADD GT ISZERO PUSH2 0xDAF JUMPI PUSH1 0x0 DUP1 REVERT JUMPDEST PUSH2 0x2C1 DUP4 PUSH1 0x20 DUP4 ADD DUP5 PUSH2 0x8CD JUMP JUMPDEST PUSH1 0x0 PUSH1 0x20 DUP1 DUP4 DUP6 SUB SLT ISZERO PUSH2 0xDD0 JUMPI PUSH1 0x0 DUP1 REVERT JUMPDEST DUP3 MLOAD PUSH8 0xFFFFFFFFFFFFFFFF DUP1 DUP3 GT ISZERO PUSH2 0xDE8 JUMPI PUSH1 0x0 DUP1 REVERT JUMPDEST DUP2 DUP6 ADD SWAP2 POP DUP6 PUSH1 0x1F DUP4 ADD SLT PUSH2 0xDFC JUMPI PUSH1 0x0 DUP1 REVERT JUMPDEST DUP2 MLOAD PUSH2 0xE0A PUSH2 0x9FB DUP3 PUSH2 0x990 JUMP JUMPDEST DUP2 DUP2 MSTORE PUSH1 0x5 SWAP2 SWAP1 SWAP2 SHL DUP4 ADD DUP5 ADD SWAP1 DUP5 DUP2 ADD SWAP1 DUP9 DUP4 GT ISZERO PUSH2 0xE29 JUMPI PUSH1 0x0 DUP1 REVERT JUMPDEST DUP6 DUP6 ADD JUMPDEST DUP4 DUP2 LT ISZERO PUSH2 0xE76 JUMPI DUP1 MLOAD DUP6 DUP2 GT ISZERO PUSH2 0xE45 JUMPI PUSH1 0x0 DUP1 DUP2 REVERT JUMPDEST DUP7 ADD PUSH1 0x3F DUP2 ADD DUP12 SGT PUSH2 0xE57 JUMPI PUSH1 0x0 DUP1 DUP2 REVERT JUMPDEST PUSH2 0xE68 DUP12 DUP10 DUP4 ADD MLOAD PUSH1 0x40 DUP5 ADD PUSH2 0xD8D JUMP JUMPDEST DUP5 MSTORE POP SWAP2 DUP7 ADD SWAP2 DUP7 ADD PUSH2 0xE2D JUMP JUMPDEST POP SWAP9 SWAP8 POP POP POP POP POP POP POP POP JUMP JUMPDEST PUSH1 0x40 DUP2 MSTORE PUSH1 0x0 PUSH2 0xE96 PUSH1 0x40 DUP4 ADD DUP6 PUSH2 0xCD6 JUMP JUMPDEST DUP3 DUP2 SUB PUSH1 0x20 DUP5 ADD MSTORE PUSH2 0xEA8 DUP2 DUP6 PUSH2 0x8F1 JUMP JUMPDEST SWAP6 SWAP5 POP POP POP POP POP JUMP JUMPDEST PUSH4 0x4E487B71 PUSH1 0xE0 SHL PUSH1 0x0 MSTORE PUSH1 0x32 PUSH1 0x4 MSTORE PUSH1 0x24 PUSH1 0x0 REVERT JUMPDEST PUSH1 0x0 PUSH1 0x20 DUP1 DUP4 DUP6 SUB SLT ISZERO PUSH2 0xEDA JUMPI PUSH1 0x0 DUP1 REVERT JUMPDEST DUP3 MLOAD PUSH8 0xFFFFFFFFFFFFFFFF DUP1 DUP3 GT ISZERO PUSH2 0xEF2 JUMPI PUSH1 0x0 DUP1 REVERT JUMPDEST DUP2 DUP6 ADD SWAP2 POP DUP6 PUSH1 0x1F DUP4 ADD SLT PUSH2 0xF06 JUMPI PUSH1 0x0 DUP1 REVERT JUMPDEST DUP2 MLOAD PUSH2 0xF14 PUSH2 0x9FB DUP3 PUSH2 0x990 JUMP JUMPDEST DUP2 DUP2 MSTORE PUSH1 0x5 SWAP2 SWAP1 SWAP2 SHL DUP4 ADD DUP5 ADD SWAP1 DUP5 DUP2 ADD SWAP1 DUP9 DUP4 GT ISZERO PUSH2 0xF33 JUMPI PUSH1 0x0 DUP1 REVERT JUMPDEST DUP6 DUP6 ADD JUMPDEST DUP4 DUP2 LT ISZERO PUSH2 0xE76 JUMPI DUP1 MLOAD DUP6 DUP2 GT ISZERO PUSH2 0xF4F JUMPI PUSH1 0x0 DUP1 DUP2 REVERT JUMPDEST DUP7 ADD PUSH1 0x3F DUP2 ADD DUP12 SGT PUSH2 0xF61 JUMPI PUSH1 0x0 DUP1 DUP2 REVERT JUMPDEST PUSH2 0xF72 DUP12 DUP10 DUP4 ADD MLOAD PUSH1 0x40 DUP5 ADD PUSH2 0xD8D JUMP JUMPDEST DUP5 MSTORE POP SWAP2 DUP7 ADD SWAP2 DUP7 ADD PUSH2 0xF37 JUMP JUMPDEST PUSH1 0x1 PUSH1 0x1 PUSH1 0xA0 SHL SUB DUP5 AND DUP2 MSTORE PUSH1 0x60 PUSH1 0x20 DUP3 ADD DUP2 SWAP1 MSTORE PUSH1 0x0 SWAP1 PUSH2 0xFA4 SWAP1 DUP4 ADD DUP6 PUSH2 0xC9A JUMP JUMPDEST DUP3 DUP2 SUB PUSH1 0x40 DUP5 ADD MSTORE PUSH2 0xFB6 DUP2 DUP6 PUSH2 0xCD6 JUMP JUMPDEST SWAP7 SWAP6 POP POP POP POP POP POP JUMP JUMPDEST PUSH1 0x1 PUSH1 0x1 PUSH1 0xA0 SHL SUB DUP8 DUP2 AND DUP3 MSTORE DUP7 AND PUSH1 0x20 DUP3 ADD MSTORE PUSH1 0xC0 PUSH1 0x40 DUP3 ADD DUP2 SWAP1 MSTORE PUSH1 0x0 SWAP1 PUSH2 0xFEC SWAP1 DUP4 ADD DUP8 PUSH2 0xC9A JUMP JUMPDEST DUP3 DUP2 SUB PUSH1 0x60 DUP5 ADD MSTORE PUSH2 0xFFE DUP2 DUP8 PUSH2 0xCD6 JUMP JUMPDEST PUSH1 0x1 PUSH1 0x1 PUSH1 0xE0 SHL SUB NOT DUP7 AND PUSH1 0x80 DUP6 ADD MSTORE DUP4 DUP2 SUB PUSH1 0xA0 DUP6 ADD MSTORE SWAP1 POP PUSH2 0x1022 DUP2 DUP6 PUSH2 0x8F1 JUMP JUMPDEST SWAP10 SWAP9 POP POP POP POP POP POP POP POP POP JUMP JUMPDEST PUSH1 0x0 PUSH1 0xA0 DUP3 ADD PUSH1 0x1 DUP1 PUSH1 0xA0 SHL SUB DUP9 AND DUP4 MSTORE PUSH1 0x20 PUSH1 0xA0 PUSH1 0x20 DUP6 ADD MSTORE DUP2 DUP9 MLOAD DUP1 DUP5 MSTORE PUSH1 0xC0 DUP7 ADD SWAP2 POP PUSH1 0xC0 DUP2 PUSH1 0x5 SHL DUP8 ADD ADD SWAP4 POP PUSH1 0x20 DUP11 ADD PUSH1 0x0 JUMPDEST DUP3 DUP2 LT ISZERO PUSH2 0x1095 JUMPI PUSH1 0xBF NOT DUP9 DUP8 SUB ADD DUP5 MSTORE PUSH2 0x1083 DUP7 DUP4 MLOAD PUSH2 0x8F1 JUMP JUMPDEST SWAP6 POP SWAP3 DUP5 ADD SWAP3 SWAP1 DUP5 ADD SWAP1 PUSH1 0x1 ADD PUSH2 0x1067 JUMP JUMPDEST POP POP POP POP POP DUP3 DUP2 SUB PUSH1 0x40 DUP5 ADD MSTORE PUSH2 0x10AC DUP2 DUP8 PUSH2 0x8F1 JUMP JUMPDEST PUSH1 0x1 PUSH1 0x1 PUSH1 0xE0 SHL SUB NOT DUP7 AND PUSH1 0x60 DUP6 ADD MSTORE SWAP1 POP DUP3 DUP2 SUB PUSH1 0x80 DUP5 ADD MSTORE PUSH2 0x10D0 DUP2 DUP6 PUSH2 0x8F1 JUMP JUMPDEST SWAP9 SWAP8 POP POP POP POP POP POP POP POP JUMP JUMPDEST PUSH1 0x0 DUP3 MLOAD PUSH2 0x10EE DUP2 DUP5 PUSH1 0x20 DUP8 ADD PUSH2 0x8CD JUMP JUMPDEST SWAP2 SWAP1 SWAP2 ADD SWAP3 SWAP2 POP POP JUMP JUMPDEST PUSH4 0x4E487B71 PUSH1 0xE0 SHL PUSH1 0x0 MSTORE PUSH1 0x11 PUSH1 0x4 MSTORE PUSH1 0x24 PUSH1 0x0 REVERT JUMPDEST DUP2 DUP2 SUB DUP2 DUP2 GT ISZERO PUSH2 0x277 JUMPI PUSH2 0x277 PUSH2 0x10F8 JUMP JUMPDEST PUSH1 0x0 PUSH1 0x1 DUP3 ADD PUSH2 0x1133 JUMPI PUSH2 0x1133 PUSH2 0x10F8 JUMP JUMPDEST POP PUSH1 0x1 ADD SWAP1 JUMP JUMPDEST DUP1 DUP3 MUL DUP2 ISZERO DUP3 DUP3 DIV DUP5 EQ OR PUSH2 0x277 JUMPI PUSH2 0x277 PUSH2 0x10F8 JUMP INVALID LOG2 PUSH5 0x6970667358 0x22 SLT KECCAK256 XOR GAS 0xCC PUSH19 0x8C561679A6C36FDB2AEE7426C206506705AA1D ADDRESS 0xCF 0xDE 0x1F DUP9 0xF 0xC2 0xE2 0xC3 PUSH5 0x736F6C6343 STOP ADDMOD NOT STOP CALLER "
        },
        "methodIdentifiers": {
          "getAcceptedL2BlockRangeLength()": "6d74e86e",
          "getAttestation(bytes32)": "a3112a64",
          "getAttestationCallback(bytes[],bytes)": "aa6cf55e",
          "getStorageSlotsCallback(bytes,bytes)": "5bdaa916"
        }
      },
      "storageLayout": {
        "storage": [
          {
            "astId": 1151,
            "contract": "contracts/L1/VeraxFetcher.sol:VeraxFetcher",
            "label": "verifier",
            "offset": 0,
            "slot": "0",
            "type": "t_contract(IEVMVerifier)798"
          },
          {
            "astId": 1153,
            "contract": "contracts/L1/VeraxFetcher.sol:VeraxFetcher",
            "label": "target",
            "offset": 0,
            "slot": "1",
            "type": "t_address"
          }
        ],
        "types": {
          "t_address": {
            "encoding": "inplace",
            "label": "address",
            "numberOfBytes": "20"
          },
          "t_contract(IEVMVerifier)798": {
            "encoding": "inplace",
            "label": "contract IEVMVerifier",
            "numberOfBytes": "20"
          }
        }
      }
    }
  }
}