{
  "_format": "hh-sol-artifact-1",
  "contractName": "VeraxFetcher",
  "sourceName": "contracts/L1/VeraxFetcher.sol",
  "abi": [
    {
      "inputs": [
        {
          "internalType": "contract IEVMVerifier",
          "name": "_verifier",
          "type": "address"
        },
        {
          "internalType": "address",
          "name": "_target",
          "type": "address"
        }
      ],
      "stateMutability": "nonpayable",
      "type": "constructor"
    },
    {
      "inputs": [],
      "name": "CommandTooLong",
      "type": "error"
    },
    {
      "inputs": [
        {
          "internalType": "address",
          "name": "sender",
          "type": "address"
        },
        {
          "internalType": "string[]",
          "name": "urls",
          "type": "string[]"
        },
        {
          "internalType": "bytes",
          "name": "callData",
          "type": "bytes"
        },
        {
          "internalType": "bytes4",
          "name": "callbackFunction",
          "type": "bytes4"
        },
        {
          "internalType": "bytes",
          "name": "extraData",
          "type": "bytes"
        }
      ],
      "name": "OffchainLookup",
      "type": "error"
    },
    {
      "inputs": [
        {
          "internalType": "uint256",
          "name": "actual",
          "type": "uint256"
        },
        {
          "internalType": "uint256",
          "name": "expected",
          "type": "uint256"
        }
      ],
      "name": "ResponseLengthMismatch",
      "type": "error"
    },
    {
      "inputs": [
        {
          "internalType": "uint256",
          "name": "max",
          "type": "uint256"
        }
      ],
      "name": "TooManyCommands",
      "type": "error"
    },
    {
      "inputs": [],
      "name": "getAcceptedL2BlockRangeLength",
      "outputs": [
        {
          "internalType": "uint256",
          "name": "",
          "type": "uint256"
        }
      ],
      "stateMutability": "pure",
      "type": "function"
    },
    {
      "inputs": [
        {
          "internalType": "bytes32",
          "name": "attestationId",
          "type": "bytes32"
        }
      ],
      "name": "getAttestation",
      "outputs": [
        {
          "internalType": "uint256",
          "name": "",
          "type": "uint256"
        }
      ],
      "stateMutability": "view",
      "type": "function"
    },
    {
      "inputs": [
        {
          "internalType": "bytes[]",
          "name": "values",
          "type": "bytes[]"
        },
        {
          "internalType": "bytes",
          "name": "",
          "type": "bytes"
        }
      ],
      "name": "getAttestationCallback",
      "outputs": [
        {
          "internalType": "bytes",
          "name": "",
          "type": "bytes"
        }
      ],
      "stateMutability": "pure",
      "type": "function"
    },
    {
      "inputs": [
        {
          "internalType": "bytes",
          "name": "response",
          "type": "bytes"
        },
        {
          "internalType": "bytes",
          "name": "extradata",
          "type": "bytes"
        }
      ],
      "name": "getStorageSlotsCallback",
      "outputs": [
        {
          "internalType": "bytes",
          "name": "",
          "type": "bytes"
        }
      ],
      "stateMutability": "nonpayable",
      "type": "function"
    }
  ],
  "bytecode": "0x6080604052348015600f57600080fd5b5060405161123e38038061123e833981016040819052602c916073565b600080546001600160a01b039384166001600160a01b0319918216179091556001805492909316911617905560a8565b6001600160a01b0381168114607057600080fd5b50565b60008060408385031215608557600080fd5b8251608e81605c565b6020840151909250609d81605c565b809150509250929050565b611187806100b76000396000f3fe608060405234801561001057600080fd5b506004361061004c5760003560e01c80635bdaa916146100515780636d74e86e1461007a578063a3112a641461008d578063aa6cf55e146100a0575b600080fd5b61006461005f366004610861565b6100b3565b604051610071919061091d565b60405180910390f35b620151805b604051908152602001610071565b61007f61009b366004610930565b6101fa565b6100646100ae366004610abd565b610259565b606060006100c385870187610b21565b9050600080808080806100d8898b018b610b86565b9550955095509550955095506000866001600160a01b031663c51ca02a8787878c6101036201518090565b6040518663ffffffff1660e01b8152600401610123959493929190610d30565b600060405180830381865afa158015610140573d6000803e3d6000fd5b505050506040513d6000823e601f3d908101601f191682016040526101689190810190610dbd565b9050845181511461019e5780518551604051632918942560e01b8152600481019290925260248201526044015b60405180910390fd5b60006101f08483856040516024016101b7929190610e83565b60408051601f198184030181529190526020810180516001600160e01b03166001600160e01b031990931692909217909152309061027f565b9050805160208201f35b6040805160208101909152600080825280546001549192610254926355367aaf60e11b9261024d91879161024791606691610241916001600160a01b0391821691166102ca565b90610364565b90610415565b9190610464565b919050565b60608260008151811061026e5761026e610eb1565b602002602001015190505b92915050565b60606102c3838360006040518060400160405280601e81526020017f416464726573733a206c6f772d6c6576656c2063616c6c206661696c65640000815250610599565b9392505050565b6102d26107d7565b6040805160208082526104208201909252600091808201610400803683375050604080516020808252610420820190925292935060009291508082015b606081526020019060019003908161030f5790505060008084528082526040805160a0810182526001600160a01b03808a16825288166020820152908101949094526060840152608083015250905092915050565b61036c6107d7565b604083015180518015801590610386575060208560600151105b15610396576103968560ff610676565b600181018252602085604001515111156103c657604051630251ce0160e31b815260206004820152602401610195565b600060608601526103d8856001610676565b61040c8561040787876040516020016103f391815260200190565b6040516020818303038152906040526106ff565b610676565b50929392505050565b61041d6107d7565b602083606001511061044257604051631601fac760e31b815260040160405180910390fd5b61045d8361040785856040516020016103f391815260200190565b5090919050565b600083604001515111801561047d575060208360600151105b1561048d5761048d8360ff610676565b3083600001516001600160a01b031663b50f2fbc6040518163ffffffff1660e01b8152600401600060405180830381865afa1580156104d0573d6000803e3d6000fd5b505050506040513d6000823e601f3d908101601f191682016040526104f89190810190610ec7565b84602001518560400151866080015160405160240161051993929190610f80565b60408051601f19818403018152918152602080830180516001600160e01b031663ea9cd3bf60e01b1790528751888201518984015160808b01519451632ded548b60e11b9561056e9590918c918c9101610fc0565b60408051601f1981840301815290829052630556f18360e41b8252610195959493929160040161102f565b6060824710156105fa5760405162461bcd60e51b815260206004820152602660248201527f416464726573733a20696e73756666696369656e742062616c616e636520666f6044820152651c8818d85b1b60d21b6064820152608401610195565b600080866001600160a01b0316858760405161061691906110dc565b60006040518083038185875af1925050503d8060008114610653576040519150601f19603f3d011682016040523d82523d6000602084013e610658565b606091505b509150915061066987838387610739565b925050505b949350505050565b6000600183604001515161068a919061110e565b60608401805191925061069c82611121565b90526106a990600861113a565b8260f81b6001600160f81b031916901c836040015182815181106106cf576106cf610eb1565b602002602001015117836040015182815181106106ee576106ee610eb1565b602002602001018181525050505050565b60808201518051600181018083529091908390829060ff851690811061072757610727610eb1565b60200260200101819052505092915050565b606083156107a85782516000036107a1576001600160a01b0385163b6107a15760405162461bcd60e51b815260206004820152601d60248201527f416464726573733a2063616c6c20746f206e6f6e2d636f6e74726163740000006044820152606401610195565b508161066e565b61066e83838151156107bd5781518083602001fd5b8060405162461bcd60e51b8152600401610195919061091d565b6040518060a0016040528060006001600160a01b0316815260200160006001600160a01b031681526020016060815260200160008152602001606081525090565b60008083601f84011261082a57600080fd5b50813567ffffffffffffffff81111561084257600080fd5b60208301915083602082850101111561085a57600080fd5b9250929050565b6000806000806040858703121561087757600080fd5b843567ffffffffffffffff8082111561088f57600080fd5b61089b88838901610818565b909650945060208701359150808211156108b457600080fd5b506108c187828801610818565b95989497509550505050565b60005b838110156108e85781810151838201526020016108d0565b50506000910152565b600081518084526109098160208601602086016108cd565b601f01601f19169290920160200192915050565b6020815260006102c360208301846108f1565b60006020828403121561094257600080fd5b5035919050565b634e487b7160e01b600052604160045260246000fd5b604051601f8201601f1916810167ffffffffffffffff8111828210171561098857610988610949565b604052919050565b600067ffffffffffffffff8211156109aa576109aa610949565b5060051b60200190565b600067ffffffffffffffff8211156109ce576109ce610949565b50601f01601f191660200190565b600082601f8301126109ed57600080fd5b8135610a006109fb826109b4565b61095f565b818152846020838601011115610a1557600080fd5b816020850160208301376000918101602001919091529392505050565b600082601f830112610a4357600080fd5b81356020610a536109fb83610990565b82815260059290921b84018101918181019086841115610a7257600080fd5b8286015b84811015610ab257803567ffffffffffffffff811115610a965760008081fd5b610aa48986838b01016109dc565b845250918301918301610a76565b509695505050505050565b60008060408385031215610ad057600080fd5b823567ffffffffffffffff80821115610ae857600080fd5b610af486838701610a32565b93506020850135915080821115610b0a57600080fd5b50610b17858286016109dc565b9150509250929050565b600060208284031215610b3357600080fd5b813567ffffffffffffffff811115610b4a57600080fd5b61066e848285016109dc565b6001600160a01b0381168114610b6b57600080fd5b50565b80356001600160e01b03198116811461025457600080fd5b60008060008060008060c08789031215610b9f57600080fd5b8635610baa81610b56565b9550602087810135610bbb81610b56565b9550604088013567ffffffffffffffff80821115610bd857600080fd5b818a0191508a601f830112610bec57600080fd5b8135610bfa6109fb82610990565b81815260059190911b8301840190848101908d831115610c1957600080fd5b938501935b82851015610c3757843582529385019390850190610c1e565b9850505060608a0135925080831115610c4f57600080fd5b610c5b8b848c01610a32565b9550610c6960808b01610b6e565b945060a08a0135925080831115610c7f57600080fd5b5050610c8d89828a016109dc565b9150509295509295509295565b60008151808452602080850194506020840160005b83811015610ccb57815187529582019590820190600101610caf565b509495945050505050565b60008282518085526020808601955060208260051b8401016020860160005b84811015610d2357601f19868403018952610d118383516108f1565b98840198925090830190600101610cf5565b5090979650505050505050565b6001600160a01b038616815260a060208201819052600090610d5490830187610c9a565b8281036040840152610d668187610cd6565b90508281036060840152610d7a81866108f1565b9150508260808301529695505050505050565b6000610d9b6109fb846109b4565b9050828152838383011115610daf57600080fd5b6102c38360208301846108cd565b60006020808385031215610dd057600080fd5b825167ffffffffffffffff80821115610de857600080fd5b818501915085601f830112610dfc57600080fd5b8151610e0a6109fb82610990565b81815260059190911b83018401908481019088831115610e2957600080fd5b8585015b83811015610e7657805185811115610e455760008081fd5b8601603f81018b13610e575760008081fd5b610e688b8983015160408401610d8d565b845250918601918601610e2d565b5098975050505050505050565b604081526000610e966040830185610cd6565b8281036020840152610ea881856108f1565b95945050505050565b634e487b7160e01b600052603260045260246000fd5b60006020808385031215610eda57600080fd5b825167ffffffffffffffff80821115610ef257600080fd5b818501915085601f830112610f0657600080fd5b8151610f146109fb82610990565b81815260059190911b83018401908481019088831115610f3357600080fd5b8585015b83811015610e7657805185811115610f4f5760008081fd5b8601603f81018b13610f615760008081fd5b610f728b8983015160408401610d8d565b845250918601918601610f37565b6001600160a01b0384168152606060208201819052600090610fa490830185610c9a565b8281036040840152610fb68185610cd6565b9695505050505050565b6001600160a01b0387811682528616602082015260c060408201819052600090610fec90830187610c9a565b8281036060840152610ffe8187610cd6565b6001600160e01b03198616608085015283810360a0850152905061102281856108f1565b9998505050505050505050565b600060a0820160018060a01b0388168352602060a0602085015281885180845260c08601915060c08160051b870101935060208a0160005b828110156110955760bf198887030184526110838683516108f1565b95509284019290840190600101611067565b505050505082810360408401526110ac81876108f1565b6001600160e01b031986166060850152905082810360808401526110d081856108f1565b98975050505050505050565b600082516110ee8184602087016108cd565b9190910192915050565b634e487b7160e01b600052601160045260246000fd5b81810381811115610279576102796110f8565b600060018201611133576111336110f8565b5060010190565b8082028115828204841417610279576102796110f856fea264697066735822122037de2cd4bae9435762f708225fb64d1f5dd68a961178df056d0d17ce2872240464736f6c63430008190033",
  "linkReferences": {},
  "deployedLinkReferences": {}
}